{
  "contractName": "Auction",
  "abi": [
    {
      "inputs": [
        {
          "internalType": "string",
          "name": "_name",
          "type": "string"
        },
        {
          "internalType": "uint256",
          "name": "_reservePrice",
          "type": "uint256"
        },
        {
          "internalType": "uint256",
          "name": "_minIncrement",
          "type": "uint256"
        },
        {
          "internalType": "uint256",
          "name": "_timeoutPeriod",
          "type": "uint256"
        }
      ],
      "payable": false,
      "stateMutability": "nonpayable",
      "type": "constructor"
    },
    {
      "anonymous": false,
      "inputs": [
        {
          "indexed": false,
          "internalType": "address",
          "name": "highBidder",
          "type": "address"
        },
        {
          "indexed": false,
          "internalType": "uint256",
          "name": "highBid",
          "type": "uint256"
        }
      ],
      "name": "Bid",
      "type": "event"
    },
    {
      "constant": true,
      "inputs": [],
      "name": "auctionEnd",
      "outputs": [
        {
          "internalType": "uint256",
          "name": "",
          "type": "uint256"
        }
      ],
      "payable": false,
      "stateMutability": "view",
      "type": "function"
    },
    {
      "constant": true,
      "inputs": [
        {
          "internalType": "address",
          "name": "",
          "type": "address"
        }
      ],
      "name": "balanceOf",
      "outputs": [
        {
          "internalType": "uint256",
          "name": "",
          "type": "uint256"
        }
      ],
      "payable": false,
      "stateMutability": "view",
      "type": "function"
    },
    {
      "constant": true,
      "inputs": [],
      "name": "minIncrement",
      "outputs": [
        {
          "internalType": "uint256",
          "name": "",
          "type": "uint256"
        }
      ],
      "payable": false,
      "stateMutability": "view",
      "type": "function"
    },
    {
      "constant": true,
      "inputs": [],
      "name": "name",
      "outputs": [
        {
          "internalType": "string",
          "name": "",
          "type": "string"
        }
      ],
      "payable": false,
      "stateMutability": "view",
      "type": "function"
    },
    {
      "constant": true,
      "inputs": [],
      "name": "reservePrice",
      "outputs": [
        {
          "internalType": "uint256",
          "name": "",
          "type": "uint256"
        }
      ],
      "payable": false,
      "stateMutability": "view",
      "type": "function"
    },
    {
      "constant": true,
      "inputs": [],
      "name": "timeoutPeriod",
      "outputs": [
        {
          "internalType": "uint256",
          "name": "",
          "type": "uint256"
        }
      ],
      "payable": false,
      "stateMutability": "view",
      "type": "function"
    },
    {
      "constant": false,
      "inputs": [
        {
          "internalType": "uint256",
          "name": "amount",
          "type": "uint256"
        }
      ],
      "name": "bid",
      "outputs": [],
      "payable": true,
      "stateMutability": "payable",
      "type": "function"
    }
  ],
  "bytecode": "0x608060405234801561001057600080fd5b50604051610a36380380610a368339818101604052608081101561003357600080fd5b810190808051604051939291908464010000000082111561005357600080fd5b8382019150602082018581111561006957600080fd5b825186600182028301116401000000008211171561008657600080fd5b8083526020830192505050908051906020019080838360005b838110156100ba57808201518184015260208101905061009f565b50505050905090810190601f1680156100e75780820380516001836020036101000a031916815260200191505b50604052602001805190602001909291908051906020019092919080519060200190929190505050600a845111610186576040517f08c379a00000000000000000000000000000000000000000000000000000000081526004018080602001828103825260108152602001807f506f6f72206465736372697074696f6e0000000000000000000000000000000081525060200191505060405180910390fd5b600083116101fc576040517f08c379a000000000000000000000000000000000000000000000000000000000815260040180806020018281038252601e8152602001807f52657365727665206d7573742062652067726561746572207468616e2030000081525060200191505060405180910390fd5b836001908051906020019061021292919061027c565b50826002819055508160038190555080600481905550336000806101000a81548173ffffffffffffffffffffffffffffffffffffffff021916908373ffffffffffffffffffffffffffffffffffffffff160217905550600454420160058190555050505050610321565b828054600181600116156101000203166002900490600052602060002090601f016020900481019282601f106102bd57805160ff19168380011785556102eb565b828001600101855582156102eb579182015b828111156102ea5782518255916020019190600101906102cf565b5b5090506102f891906102fc565b5090565b61031e91905b8082111561031a576000816000905550600101610302565b5090565b90565b610706806103306000396000f3fe6080604052600436106100705760003560e01c80636cea6b821161004e5780636cea6b821461015e57806370a08231146101895780638afcb14d146101ee578063db2e1eed1461021957610070565b806306fdde03146100755780632a24f46c14610105578063454a2ab314610130575b600080fd5b34801561008157600080fd5b5061008a610244565b6040518080602001828103825283818151815260200191508051906020019080838360005b838110156100ca5780820151818401526020810190506100af565b50505050905090810190601f1680156100f75780820380516001836020036101000a031916815260200191505b509250505060405180910390f35b34801561011157600080fd5b5061011a6102e2565b6040518082815260200191505060405180910390f35b61015c6004803603602081101561014657600080fd5b81019080803590602001909291905050506102e8565b005b34801561016a57600080fd5b50610173610638565b6040518082815260200191505060405180910390f35b34801561019557600080fd5b506101d8600480360360208110156101ac57600080fd5b81019080803573ffffffffffffffffffffffffffffffffffffffff16906020019092919050505061063e565b6040518082815260200191505060405180910390f35b3480156101fa57600080fd5b50610203610656565b6040518082815260200191505060405180910390f35b34801561022557600080fd5b5061022e61065c565b6040518082815260200191505060405180910390f35b60018054600181600116156101000203166002900480601f0160208091040260200160405190810160405280929190818152602001828054600181600116156101000203166002900480156102da5780601f106102af576101008083540402835291602001916102da565b820191906000526020600020905b8154815290600101906020018083116102bd57829003601f168201915b505050505081565b60055481565b600554421061035f576040517f08c379a00000000000000000000000000000000000000000000000000000000081526004018080602001828103825260108152602001807f41756374696f6e20697320656e6465640000000000000000000000000000000081525060200191505060405180910390fd5b6002548110156103ba576040517f08c379a00000000000000000000000000000000000000000000000000000000081526004018080602001828103825260278152602001806106636027913960400191505060405180910390fd5b60035460076000600660009054906101000a900473ffffffffffffffffffffffffffffffffffffffff1673ffffffffffffffffffffffffffffffffffffffff1673ffffffffffffffffffffffffffffffffffffffff1681526020019081526020016000205401811015610478576040517f08c379a00000000000000000000000000000000000000000000000000000000081526004018080602001828103825260258152602001806106ad6025913960400191505060405180910390fd5b34600760003373ffffffffffffffffffffffffffffffffffffffff1673ffffffffffffffffffffffffffffffffffffffff1681526020019081526020016000206000828254019250508190555080600760003373ffffffffffffffffffffffffffffffffffffffff1673ffffffffffffffffffffffffffffffffffffffff168152602001908152602001600020541461055c576040517f08c379a000000000000000000000000000000000000000000000000000000000815260040180806020018281038252602381526020018061068a6023913960400191505060405180910390fd5b33600660006101000a81548173ffffffffffffffffffffffffffffffffffffffff021916908373ffffffffffffffffffffffffffffffffffffffff16021790555060045442016005819055507fe684a55f31b79eca403df938249029212a5925ec6be8012e099b45bc1019e5d2600660009054906101000a900473ffffffffffffffffffffffffffffffffffffffff1682604051808373ffffffffffffffffffffffffffffffffffffffff1673ffffffffffffffffffffffffffffffffffffffff1681526020018281526020019250505060405180910390a150565b60045481565b60076020528060005260406000206000915090505481565b60035481565b6002548156fe42696420616d6f756e74206d7573742062652067726561746572207468616e2072657365727665457363726f77656420616d6f756e7420697320646966666572656e74206f662062696442696420616d6f756e7420646f6573206e6f74207265616368206869676865737420626964a265627a7a723158202f2c5da5dcc227e36e4d6e038375b745c462d5b45b488f1e25a6a9db4fb81bd564736f6c63430005100032",
  "source": "pragma solidity >=0.4.25 <0.7.0;\n\ncontract Auction {\n    address seller;\n\n    string public name;\n    uint256 public reservePrice;\n    uint256 public minIncrement;\n    uint256 public timeoutPeriod;\n    uint256 public auctionEnd;\n\n    address highBidder;\n    mapping(address => uint256) public balanceOf;\n\n    event Bid(address highBidder, uint256 highBid);\n\n    constructor (\n        string memory _name,\n        uint256 _reservePrice,\n        uint256 _minIncrement,\n        uint256 _timeoutPeriod) public {\n            require(bytes(_name).length > 10, \"Poor description\");\n            require(_reservePrice > 0, \"Reserve must be greater than 0\");\n            name = _name;\n            reservePrice = _reservePrice;\n            minIncrement = _minIncrement;\n            timeoutPeriod = _timeoutPeriod;\n            seller = msg.sender;\n            auctionEnd = now + timeoutPeriod;\n    }\n\n    function bid(uint256 amount) public payable {\n        require(now < auctionEnd, \"Auction is ended\");\n        require(amount >= reservePrice, \"Bid amount must be greater than reserve\");\n        require(amount >= balanceOf[highBidder] + minIncrement, \"Bid amount does not reach highest bid\");\n\n        balanceOf[msg.sender] += msg.value;\n        require(balanceOf[msg.sender] == amount, \"Escrowed amount is different of bid\");\n\n        highBidder = msg.sender;\n\n        auctionEnd = now + timeoutPeriod;\n\n        emit Bid(highBidder, amount);\n    }\n\n}",
  "sourcePath": "/Users/ivanvologin/Documents/UNI/programming/BC_LAB/contracts/Auction.sol",
  "compiler": {
    "name": "solc",
    "version": "0.5.16+commit.9c3226ce.Emscripten.clang"
  },
  "schemaVersion": "3.4.1",
  "updatedAt": "2021-06-12T09:38:36.090Z",
  "devdoc": {
    "methods": {}
  },
  "userdoc": {
    "methods": {}
  }
}