{
  "contractName": "Voting",
  "abi": [
    {
      "inputs": [
        {
          "internalType": "string",
          "name": "_BallotOfficialName",
          "type": "string"
        },
        {
          "internalType": "string",
          "name": "_proposal",
          "type": "string"
        }
      ],
      "payable": false,
      "stateMutability": "nonpayable",
      "type": "constructor"
    },
    {
      "constant": true,
      "inputs": [],
      "name": "BallotOfficialAddress",
      "outputs": [
        {
          "internalType": "address",
          "name": "",
          "type": "address"
        }
      ],
      "payable": false,
      "stateMutability": "view",
      "type": "function"
    },
    {
      "constant": true,
      "inputs": [],
      "name": "BallotOfficialName",
      "outputs": [
        {
          "internalType": "string",
          "name": "",
          "type": "string"
        }
      ],
      "payable": false,
      "stateMutability": "view",
      "type": "function"
    },
    {
      "constant": true,
      "inputs": [],
      "name": "FinalResult",
      "outputs": [
        {
          "internalType": "uint256",
          "name": "",
          "type": "uint256"
        }
      ],
      "payable": false,
      "stateMutability": "view",
      "type": "function"
    },
    {
      "constant": true,
      "inputs": [],
      "name": "TotalVote",
      "outputs": [
        {
          "internalType": "uint256",
          "name": "",
          "type": "uint256"
        }
      ],
      "payable": false,
      "stateMutability": "view",
      "type": "function"
    },
    {
      "constant": true,
      "inputs": [],
      "name": "TotalVoter",
      "outputs": [
        {
          "internalType": "uint256",
          "name": "",
          "type": "uint256"
        }
      ],
      "payable": false,
      "stateMutability": "view",
      "type": "function"
    },
    {
      "constant": true,
      "inputs": [
        {
          "internalType": "address",
          "name": "",
          "type": "address"
        }
      ],
      "name": "VoterRegister",
      "outputs": [
        {
          "internalType": "string",
          "name": "VoterName",
          "type": "string"
        },
        {
          "internalType": "bool",
          "name": "voted",
          "type": "bool"
        }
      ],
      "payable": false,
      "stateMutability": "view",
      "type": "function"
    },
    {
      "constant": true,
      "inputs": [],
      "name": "proposal",
      "outputs": [
        {
          "internalType": "string",
          "name": "",
          "type": "string"
        }
      ],
      "payable": false,
      "stateMutability": "view",
      "type": "function"
    },
    {
      "constant": true,
      "inputs": [],
      "name": "state",
      "outputs": [
        {
          "internalType": "enum Voting.State",
          "name": "",
          "type": "uint8"
        }
      ],
      "payable": false,
      "stateMutability": "view",
      "type": "function"
    },
    {
      "constant": false,
      "inputs": [
        {
          "internalType": "address",
          "name": "_VoterAddres",
          "type": "address"
        },
        {
          "internalType": "string",
          "name": "_VoterName",
          "type": "string"
        }
      ],
      "name": "addVoter",
      "outputs": [],
      "payable": false,
      "stateMutability": "nonpayable",
      "type": "function"
    },
    {
      "constant": false,
      "inputs": [],
      "name": "startVote",
      "outputs": [],
      "payable": false,
      "stateMutability": "nonpayable",
      "type": "function"
    },
    {
      "constant": false,
      "inputs": [
        {
          "internalType": "bool",
          "name": "_choice",
          "type": "bool"
        }
      ],
      "name": "doVote",
      "outputs": [
        {
          "internalType": "bool",
          "name": "voted",
          "type": "bool"
        }
      ],
      "payable": false,
      "stateMutability": "nonpayable",
      "type": "function"
    },
    {
      "constant": false,
      "inputs": [],
      "name": "endVote",
      "outputs": [],
      "payable": false,
      "stateMutability": "nonpayable",
      "type": "function"
    }
  ],
  "bytecode": "0x6080604052600080556000600155600060025560006003553480156200002457600080fd5b5060405162000fbf38038062000fbf833981810160405260408110156200004a57600080fd5b81019080805160405193929190846401000000008211156200006b57600080fd5b838201915060208201858111156200008257600080fd5b8251866001820283011164010000000082111715620000a057600080fd5b8083526020830192505050908051906020019080838360005b83811015620000d6578082015181840152602081019050620000b9565b50505050905090810190601f168015620001045780820380516001836020036101000a031916815260200191505b50604052602001805160405193929190846401000000008211156200012857600080fd5b838201915060208201858111156200013f57600080fd5b82518660018202830111640100000000821117156200015d57600080fd5b8083526020830192505050908051906020019080838360005b838110156200019357808201518184015260208101905062000176565b50505050905090810190601f168015620001c15780820380516001836020036101000a031916815260200191505b5060405250505033600460006101000a81548173ffffffffffffffffffffffffffffffffffffffff021916908373ffffffffffffffffffffffffffffffffffffffff16021790555081600590805190602001906200022192919062000268565b5080600690805190602001906200023a92919062000268565b506000600960006101000a81548160ff021916908360028111156200025b57fe5b0217905550505062000317565b828054600181600116156101000203166002900490600052602060002090601f016020900481019282601f10620002ab57805160ff1916838001178555620002dc565b82800160010185558215620002dc579182015b82811115620002db578251825591602001919060010190620002be565b5b509050620002eb9190620002ef565b5090565b6200031491905b8082111562000310576000816000905550600101620002f6565b5090565b90565b610c9880620003276000396000f3fe608060405234801561001057600080fd5b50600436106100b45760003560e01c8063a5e2b65611610071578063a5e2b6561461024d578063b922394614610297578063c19d93fb146102a1578063d9e95a98146102cd578063e39ed0fc146103a8578063e4652c3d146103c6576100b4565b806334a5462c146100b957806339e52b0d146100d75780634c0a6af01461015a578063753ec103146101645780637bc4cc3b146101e757806387caea7814610205575b600080fd5b6100c161048e565b6040518082815260200191505060405180910390f35b6100df610494565b6040518080602001828103825283818151815260200191508051906020019080838360005b8381101561011f578082015181840152602081019050610104565b50505050905090810190601f16801561014c5780820380516001836020036101000a031916815260200191505b509250505060405180910390f35b610162610532565b005b61016c6105e6565b6040518080602001828103825283818151815260200191508051906020019080838360005b838110156101ac578082015181840152602081019050610191565b50505050905090810190601f1680156101d95780820380516001836020036101000a031916815260200191505b509250505060405180910390f35b6101ef610684565b6040518082815260200191505060405180910390f35b6102336004803603602081101561021b57600080fd5b8101908080351515906020019092919050505061068a565b604051808215151515815260200191505060405180910390f35b61025561087c565b604051808273ffffffffffffffffffffffffffffffffffffffff1673ffffffffffffffffffffffffffffffffffffffff16815260200191505060405180910390f35b61029f6108a2565b005b6102a961095f565b604051808260028111156102b957fe5b60ff16815260200191505060405180910390f35b6103a6600480360360408110156102e357600080fd5b81019080803573ffffffffffffffffffffffffffffffffffffffff1690602001909291908035906020019064010000000081111561032057600080fd5b82018360208201111561033257600080fd5b8035906020019184600183028401116401000000008311171561035457600080fd5b91908080601f016020809104026020016040519081016040528093929190818152602001838380828437600081840152601f19601f820116905080830192505050505050509192919290505050610972565b005b6103b0610ab7565b6040518082815260200191505060405180910390f35b610408600480360360208110156103dc57600080fd5b81019080803573ffffffffffffffffffffffffffffffffffffffff169060200190929190505050610abd565b604051808060200183151515158152602001828103825284818151815260200191508051906020019080838360005b83811015610452578082015181840152602081019050610437565b50505050905090810190601f16801561047f5780820380516001836020036101000a031916815260200191505b50935050505060405180910390f35b60015481565b60058054600181600116156101000203166002900480601f01602080910402602001604051908101604052809291908181526020018280546001816001161561010002031660029004801561052a5780601f106104ff5761010080835404028352916020019161052a565b820191906000526020600020905b81548152906001019060200180831161050d57829003601f168201915b505050505081565b600080600281111561054057fe5b600960009054906101000a900460ff16600281111561055b57fe5b1461056557600080fd5b600460009054906101000a900473ffffffffffffffffffffffffffffffffffffffff1673ffffffffffffffffffffffffffffffffffffffff163373ffffffffffffffffffffffffffffffffffffffff16146105bf57600080fd5b6001600960006101000a81548160ff021916908360028111156105de57fe5b021790555050565b60068054600181600116156101000203166002900480601f01602080910402602001604051908101604052809291908181526020018280546001816001161561010002031660029004801561067c5780601f106106515761010080835404028352916020019161067c565b820191906000526020600020905b81548152906001019060200180831161065f57829003601f168201915b505050505081565b60035481565b6000600180600281111561069a57fe5b600960009054906101000a900460ff1660028111156106b557fe5b146106bf57600080fd5b60008090506000600860003373ffffffffffffffffffffffffffffffffffffffff1673ffffffffffffffffffffffffffffffffffffffff168152602001908152602001600020600001805460018160011615610100020316600290049050141580156107785750600860003373ffffffffffffffffffffffffffffffffffffffff1673ffffffffffffffffffffffffffffffffffffffff16815260200190815260200160002060010160009054906101000a900460ff16155b15610872576001600860003373ffffffffffffffffffffffffffffffffffffffff1673ffffffffffffffffffffffffffffffffffffffff16815260200190815260200160002060010160006101000a81548160ff0219169083151502179055506107e0610b86565b848160200190151590811515815250508415610806576000808154600101919050819055505b806007600060035481526020019081526020016000206000820151816000019080519060200190610838929190610ba2565b5060208201518160010160006101000a81548160ff0219169083151502179055509050506003600081546001019190508190555060019150505b8092505050919050565b600460009054906101000a900473ffffffffffffffffffffffffffffffffffffffff1681565b60018060028111156108b057fe5b600960009054906101000a900460ff1660028111156108cb57fe5b146108d557600080fd5b600460009054906101000a900473ffffffffffffffffffffffffffffffffffffffff1673ffffffffffffffffffffffffffffffffffffffff163373ffffffffffffffffffffffffffffffffffffffff161461092f57600080fd5b6002600960006101000a81548160ff0219169083600281111561094e57fe5b021790555060005460018190555050565b600960009054906101000a900460ff1681565b600080600281111561098057fe5b600960009054906101000a900460ff16600281111561099b57fe5b146109a557600080fd5b600460009054906101000a900473ffffffffffffffffffffffffffffffffffffffff1673ffffffffffffffffffffffffffffffffffffffff163373ffffffffffffffffffffffffffffffffffffffff16146109ff57600080fd5b610a07610c22565b828160000181905250600081602001901515908115158152505080600860008673ffffffffffffffffffffffffffffffffffffffff1673ffffffffffffffffffffffffffffffffffffffff1681526020019081526020016000206000820151816000019080519060200190610a7d929190610ba2565b5060208201518160010160006101000a81548160ff0219169083151502179055509050506002600081546001019190508190555050505050565b60025481565b6008602052806000526040600020600091509050806000018054600181600116156101000203166002900480601f016020809104026020016040519081016040528092919081815260200182805460018160011615610100020316600290048015610b695780601f10610b3e57610100808354040283529160200191610b69565b820191906000526020600020905b815481529060010190602001808311610b4c57829003601f168201915b5050505050908060010160009054906101000a900460ff16905082565b6040518060400160405280606081526020016000151581525090565b828054600181600116156101000203166002900490600052602060002090601f016020900481019282601f10610be357805160ff1916838001178555610c11565b82800160010185558215610c11579182015b82811115610c10578251825591602001919060010190610bf5565b5b509050610c1e9190610c3e565b5090565b6040518060400160405280606081526020016000151581525090565b610c6091905b80821115610c5c576000816000905550600101610c44565b5090565b9056fea265627a7a7231582081749db65be861486e479f3d5ad9e956685e3dd2da3b05422ab8dbeac72597bf64736f6c63430005100032",
  "source": "pragma solidity >=0.4.25 <0.7.0;\n\n// address - содержит в себе 20 byte (размер ETH адреса)\n// memory - то что мы храним в памяти (какое-то значение)\n\ncontract Voting{\n\nstruct vote {\n    string VoterAddres;\n    bool choice;\n}\n\nstruct voter{\n    string VoterName;\n    bool voted;\n}\n\nuint private CountResult = 0;\nuint public FinalResult = 0;\nuint public TotalVoter = 0;\nuint public TotalVote = 0;\n\n\naddress public BallotOfficialAddress;\nstring public BallotOfficialName;\nstring public proposal;\n\nmapping(uint => vote) private votes;\nmapping(address => voter) public VoterRegister;\n\nenum State{\n    Created,\n    Voting,\n    Ended\n}\nState public state;\n\n\n//MODIFIERS\n\nmodifier condition(bool _condition){\n    require(_condition);\n    _;\n}\n\nmodifier onlyOfficial(){\n    require(msg.sender == BallotOfficialAddress);\n    _;\n}\n\nmodifier inState(State _state){\n    require(state == _state);\n    _;\n}\n\n//FUNCTIONS\n\nconstructor (string memory _BallotOfficialName, string memory _proposal) public{\n    BallotOfficialAddress = msg.sender;\n    BallotOfficialName = _BallotOfficialName;\n    proposal = _proposal;\n\n    state = State.Created;\n\n}\n\n function addVoter(address _VoterAddres,string memory _VoterName) \n     public \n     inState(State.Created)\n     onlyOfficial\n {\n     voter memory v;\n     v.VoterName = _VoterName;\n     v.voted = false;\n     VoterRegister[_VoterAddres] = v;\n     ++TotalVoter;\n }\n \n function startVote() \n    public \n    inState(State.Created)\n    onlyOfficial\n {\n     state = State.Voting;\n }\n  function doVote(bool _choice)\n    public \n    inState(State.Voting)\n    returns (bool voted)\n  {\n      bool found = false;\n      if(bytes(VoterRegister[msg.sender].VoterName).length != 0 && !VoterRegister[msg.sender].voted){\n          VoterRegister[msg.sender].voted = true;\n          vote memory v;\n          v.choice = _choice;\n          if(_choice){\n              ++CountResult;\n          }\n          votes[TotalVote] = v;\n          ++TotalVote;\n          found = true;\n      }\n      return found;\n  }\n\n  function endVote()\n    public\n    inState(State.Voting)\n    onlyOfficial\n  {\n      state = State.Ended;\n      FinalResult = CountResult;\n  }\n\n}",
  "sourcePath": "/Users/ivanvologin/Documents/UNI/programming/BC_LAB/contracts/Voting.sol",
  "compiler": {
    "name": "solc",
    "version": "0.5.16+commit.9c3226ce.Emscripten.clang"
  },
  "schemaVersion": "3.4.1",
  "updatedAt": "2021-06-12T09:49:58.784Z",
  "networkType": "ethereum",
  "devdoc": {
    "methods": {}
  },
  "userdoc": {
    "methods": {}
  }
}